:020000040000FA
:040000008A01052844
:040004000034003490
:08000800AA292D211C21C320AF
:100010000A304B2157215C21013A031D1628172075
:100020002F20392076208D20AA0AAB0A0B28813098
:100030009F002820A00089309F002820A100913037
:100040009F002820A20099309F002820A3000800CC
:10005000103045211F151F192B281E080800A50167
:100060000F30861D0301A507F030061E0301A5070A
:10007000080078214030B4009D210030B4009D215B
:1000800078214130B4009D2192213308A6007D21C2
:1000900078214030B4009D210130B4009D217821A9
:1000A0004130B4009D2192213308A7007D217821A1
:1000B0004230B4009D210030B4009D2178214330AE
:1000C000B4009D2192213308A8007D21782142307F
:1000D000B4009D210130B4009D2178214330B4004B
:1000E0009D2192213308A9007D210800782140300C
:1000F000B4009D210330B4009D212B08B4009D2144
:100100007D2178214230B4009D210330B4009D212F
:100110002A08B4009D217D210800AE015330292119
:10012000AE070A30452120082921AE070A304521B3
:1001300021082921AE070A30452122082921AE07CE
:100140000A30452123082921AE070A304521250818
:100150002921AE070A30452126082921AE070A3099
:10016000452127082921AE070A30452128082921E1
:10017000AE070A30452129082921AE070A3045215A
:100180002E082921080078214030B4009D214630F6
:10019000B4009D21FF30B4009D217D2178214030A5
:1001A000B4009D214730B4009D21FF30B4009D2153
:1001B0007D2178214030B4009D210630B4009D217E
:1001C000FF30B4009D217D2178214030B4009D2175
:1001D0000730B4009D21F330B4009D217D217821AA
:1001E0004230B4009D214630B4009D21FF30B40060
:1001F0009D217D2178214230B4009D214730B400FB
:100200009D21FF30B4009D217D2178214230B40032
:100210009D210630B4009D21FF30B4009D217D2139
:1002200078214230B4009D210730B4009D21F33085
:10023000B4009D217D210800903098008316243061
:10024000980008309900831208008C1E25291A088E
:1002500008000C1E292999000800031383168B132C
:1002600078308F00EF308500DF3086003F3081002E
:1002700000309F000F309B00831208000000000038
:1002800000000000000000000800AF003E213E21F9
:10029000AF0B46290800B00064304521B00B4C2953
:1002A0000800B100FA304B21B10B52290800FF3091
:1002B000AD001430AC000800AD03031D00342C0861
:1002C00003196429AC030034572101340513831644
:1002D000051383120800831605178312080085137F
:1002E000831685138312080083168517831208006E
:1002F0006B21742166216F210800662174216B2116
:100300000800B2176B2174213E21051FB2136F2123
:100310000800321F8D296B218E29662174213E2110
:100320006F210800B3010830B5000310B30D81211F
:10033000B21B3314B50B962908000830B5003213F0
:10034000B41B32178921B40DB50B9F298121B21B33
:1003500005160800F1000308F2000A08F30073080C
:0C0360008A0072088300F10E710E090083
:02400E00303F41
:02401000FC3F73
:0442000001000302B4
:00000001FF
